{
  "_format": "hh-sol-artifact-1",
  "contractName": "BooksOfYe",
  "sourceName": "contracts/BooksOfYe.sol",
  "abi": [
    {
      "inputs": [],
      "stateMutability": "nonpayable",
      "type": "constructor"
    },
    {
      "anonymous": false,
      "inputs": [
        {
          "indexed": true,
          "internalType": "address",
          "name": "account",
          "type": "address"
        },
        {
          "indexed": true,
          "internalType": "address",
          "name": "operator",
          "type": "address"
        },
        {
          "indexed": false,
          "internalType": "bool",
          "name": "approved",
          "type": "bool"
        }
      ],
      "name": "ApprovalForAll",
      "type": "event"
    },
    {
      "anonymous": false,
      "inputs": [
        {
          "indexed": true,
          "internalType": "address",
          "name": "previousOwner",
          "type": "address"
        },
        {
          "indexed": true,
          "internalType": "address",
          "name": "newOwner",
          "type": "address"
        }
      ],
      "name": "OwnershipTransferred",
      "type": "event"
    },
    {
      "anonymous": false,
      "inputs": [
        {
          "indexed": true,
          "internalType": "address",
          "name": "operator",
          "type": "address"
        },
        {
          "indexed": true,
          "internalType": "address",
          "name": "from",
          "type": "address"
        },
        {
          "indexed": true,
          "internalType": "address",
          "name": "to",
          "type": "address"
        },
        {
          "indexed": false,
          "internalType": "uint256[]",
          "name": "ids",
          "type": "uint256[]"
        },
        {
          "indexed": false,
          "internalType": "uint256[]",
          "name": "values",
          "type": "uint256[]"
        }
      ],
      "name": "TransferBatch",
      "type": "event"
    },
    {
      "anonymous": false,
      "inputs": [
        {
          "indexed": true,
          "internalType": "address",
          "name": "operator",
          "type": "address"
        },
        {
          "indexed": true,
          "internalType": "address",
          "name": "from",
          "type": "address"
        },
        {
          "indexed": true,
          "internalType": "address",
          "name": "to",
          "type": "address"
        },
        {
          "indexed": false,
          "internalType": "uint256",
          "name": "id",
          "type": "uint256"
        },
        {
          "indexed": false,
          "internalType": "uint256",
          "name": "value",
          "type": "uint256"
        }
      ],
      "name": "TransferSingle",
      "type": "event"
    },
    {
      "anonymous": false,
      "inputs": [
        {
          "indexed": false,
          "internalType": "string",
          "name": "value",
          "type": "string"
        },
        {
          "indexed": true,
          "internalType": "uint256",
          "name": "id",
          "type": "uint256"
        }
      ],
      "name": "URI",
      "type": "event"
    },
    {
      "stateMutability": "payable",
      "type": "fallback"
    },
    {
      "inputs": [
        {
          "internalType": "uint128",
          "name": "cardId",
          "type": "uint128"
        },
        {
          "internalType": "uint128",
          "name": "eventNumber",
          "type": "uint128"
        }
      ],
      "name": "activateCardPerks",
      "outputs": [],
      "stateMutability": "nonpayable",
      "type": "function"
    },
    {
      "inputs": [
        {
          "internalType": "uint128",
          "name": "newLimit",
          "type": "uint128"
        }
      ],
      "name": "alterMintLimit",
      "outputs": [],
      "stateMutability": "nonpayable",
      "type": "function"
    },
    {
      "inputs": [
        {
          "internalType": "address",
          "name": "account",
          "type": "address"
        },
        {
          "internalType": "uint256",
          "name": "id",
          "type": "uint256"
        }
      ],
      "name": "balanceOf",
      "outputs": [
        {
          "internalType": "uint256",
          "name": "",
          "type": "uint256"
        }
      ],
      "stateMutability": "view",
      "type": "function"
    },
    {
      "inputs": [
        {
          "internalType": "address[]",
          "name": "accounts",
          "type": "address[]"
        },
        {
          "internalType": "uint256[]",
          "name": "ids",
          "type": "uint256[]"
        }
      ],
      "name": "balanceOfBatch",
      "outputs": [
        {
          "internalType": "uint256[]",
          "name": "",
          "type": "uint256[]"
        }
      ],
      "stateMutability": "view",
      "type": "function"
    },
    {
      "inputs": [],
      "name": "baseURI",
      "outputs": [
        {
          "internalType": "string",
          "name": "",
          "type": "string"
        }
      ],
      "stateMutability": "view",
      "type": "function"
    },
    {
      "inputs": [
        {
          "internalType": "address[]",
          "name": "_addresses",
          "type": "address[]"
        },
        {
          "internalType": "uint128",
          "name": "eventNumber",
          "type": "uint128"
        }
      ],
      "name": "batchAddToWhitelist",
      "outputs": [],
      "stateMutability": "nonpayable",
      "type": "function"
    },
    {
      "inputs": [
        {
          "internalType": "address[]",
          "name": "_addresses",
          "type": "address[]"
        },
        {
          "internalType": "uint128[]",
          "name": "cardId",
          "type": "uint128[]"
        },
        {
          "internalType": "uint128",
          "name": "addToWhichWhitelist",
          "type": "uint128"
        }
      ],
      "name": "batchGiftMint",
      "outputs": [],
      "stateMutability": "nonpayable",
      "type": "function"
    },
    {
      "inputs": [
        {
          "internalType": "address[]",
          "name": "_addresses",
          "type": "address[]"
        },
        {
          "internalType": "uint128",
          "name": "eventNumber",
          "type": "uint128"
        }
      ],
      "name": "batchRemoveFromWhitelist",
      "outputs": [],
      "stateMutability": "nonpayable",
      "type": "function"
    },
    {
      "inputs": [
        {
          "internalType": "address",
          "name": "account",
          "type": "address"
        },
        {
          "internalType": "uint256",
          "name": "id",
          "type": "uint256"
        },
        {
          "internalType": "uint256",
          "name": "value",
          "type": "uint256"
        }
      ],
      "name": "burn",
      "outputs": [],
      "stateMutability": "nonpayable",
      "type": "function"
    },
    {
      "inputs": [
        {
          "internalType": "address",
          "name": "account",
          "type": "address"
        },
        {
          "internalType": "uint256[]",
          "name": "ids",
          "type": "uint256[]"
        },
        {
          "internalType": "uint256[]",
          "name": "values",
          "type": "uint256[]"
        }
      ],
      "name": "burnBatch",
      "outputs": [],
      "stateMutability": "nonpayable",
      "type": "function"
    },
    {
      "inputs": [
        {
          "internalType": "address",
          "name": "",
          "type": "address"
        }
      ],
      "name": "cardPurchaseTracker",
      "outputs": [
        {
          "internalType": "uint128",
          "name": "",
          "type": "uint128"
        }
      ],
      "stateMutability": "view",
      "type": "function"
    },
    {
      "inputs": [
        {
          "internalType": "uint128",
          "name": "cardId",
          "type": "uint128"
        }
      ],
      "name": "checkTokenOwners",
      "outputs": [
        {
          "internalType": "address",
          "name": "ownerOfToken",
          "type": "address"
        }
      ],
      "stateMutability": "view",
      "type": "function"
    },
    {
      "inputs": [
        {
          "internalType": "uint128",
          "name": "eventNumber",
          "type": "uint128"
        },
        {
          "internalType": "address",
          "name": "_address",
          "type": "address"
        }
      ],
      "name": "checkWhitelist",
      "outputs": [
        {
          "internalType": "bool",
          "name": "isUserWL",
          "type": "bool"
        }
      ],
      "stateMutability": "view",
      "type": "function"
    },
    {
      "inputs": [],
      "name": "contractURI",
      "outputs": [
        {
          "internalType": "string",
          "name": "",
          "type": "string"
        }
      ],
      "stateMutability": "pure",
      "type": "function"
    },
    {
      "inputs": [
        {
          "internalType": "uint128",
          "name": "eventNumber",
          "type": "uint128"
        },
        {
          "internalType": "uint128",
          "name": "_newMin",
          "type": "uint128"
        },
        {
          "internalType": "uint128",
          "name": "_newMax",
          "type": "uint128"
        }
      ],
      "name": "editSaleMinCardId",
      "outputs": [],
      "stateMutability": "nonpayable",
      "type": "function"
    },
    {
      "inputs": [
        {
          "internalType": "uint128",
          "name": "eventNumber",
          "type": "uint128"
        },
        {
          "internalType": "uint128",
          "name": "_newPriceInWei",
          "type": "uint128"
        }
      ],
      "name": "editSalePrice",
      "outputs": [],
      "stateMutability": "nonpayable",
      "type": "function"
    },
    {
      "inputs": [
        {
          "internalType": "uint128",
          "name": "eventNumber",
          "type": "uint128"
        },
        {
          "internalType": "bool",
          "name": "_isActive",
          "type": "bool"
        },
        {
          "internalType": "bool",
          "name": "_isPreSale",
          "type": "bool"
        },
        {
          "internalType": "bool",
          "name": "_isPublicSale",
          "type": "bool"
        }
      ],
      "name": "editSaleStatus",
      "outputs": [],
      "stateMutability": "nonpayable",
      "type": "function"
    },
    {
      "inputs": [
        {
          "internalType": "uint256",
          "name": "id",
          "type": "uint256"
        }
      ],
      "name": "exists",
      "outputs": [
        {
          "internalType": "bool",
          "name": "",
          "type": "bool"
        }
      ],
      "stateMutability": "view",
      "type": "function"
    },
    {
      "inputs": [
        {
          "internalType": "address",
          "name": "account",
          "type": "address"
        },
        {
          "internalType": "address",
          "name": "operator",
          "type": "address"
        }
      ],
      "name": "isApprovedForAll",
      "outputs": [
        {
          "internalType": "bool",
          "name": "",
          "type": "bool"
        }
      ],
      "stateMutability": "view",
      "type": "function"
    },
    {
      "inputs": [],
      "name": "maxSupply",
      "outputs": [
        {
          "internalType": "uint256",
          "name": "",
          "type": "uint256"
        }
      ],
      "stateMutability": "view",
      "type": "function"
    },
    {
      "inputs": [],
      "name": "mintLimit",
      "outputs": [
        {
          "internalType": "uint128",
          "name": "",
          "type": "uint128"
        }
      ],
      "stateMutability": "view",
      "type": "function"
    },
    {
      "inputs": [],
      "name": "owner",
      "outputs": [
        {
          "internalType": "address",
          "name": "",
          "type": "address"
        }
      ],
      "stateMutability": "view",
      "type": "function"
    },
    {
      "inputs": [
        {
          "internalType": "uint128",
          "name": "eventNumber",
          "type": "uint128"
        },
        {
          "internalType": "uint128",
          "name": "cardId",
          "type": "uint128"
        }
      ],
      "name": "preSaleMint",
      "outputs": [],
      "stateMutability": "payable",
      "type": "function"
    },
    {
      "inputs": [
        {
          "internalType": "uint128",
          "name": "eventNumber",
          "type": "uint128"
        },
        {
          "internalType": "uint128",
          "name": "cardId",
          "type": "uint128"
        }
      ],
      "name": "publicMint",
      "outputs": [],
      "stateMutability": "payable",
      "type": "function"
    },
    {
      "inputs": [],
      "name": "renounceOwnership",
      "outputs": [],
      "stateMutability": "nonpayable",
      "type": "function"
    },
    {
      "inputs": [
        {
          "internalType": "address",
          "name": "from",
          "type": "address"
        },
        {
          "internalType": "address",
          "name": "to",
          "type": "address"
        },
        {
          "internalType": "uint256[]",
          "name": "ids",
          "type": "uint256[]"
        },
        {
          "internalType": "uint256[]",
          "name": "amounts",
          "type": "uint256[]"
        },
        {
          "internalType": "bytes",
          "name": "data",
          "type": "bytes"
        }
      ],
      "name": "safeBatchTransferFrom",
      "outputs": [],
      "stateMutability": "nonpayable",
      "type": "function"
    },
    {
      "inputs": [
        {
          "internalType": "address",
          "name": "from",
          "type": "address"
        },
        {
          "internalType": "address",
          "name": "to",
          "type": "address"
        },
        {
          "internalType": "uint256",
          "name": "id",
          "type": "uint256"
        },
        {
          "internalType": "uint256",
          "name": "amount",
          "type": "uint256"
        },
        {
          "internalType": "bytes",
          "name": "data",
          "type": "bytes"
        }
      ],
      "name": "safeTransferFrom",
      "outputs": [],
      "stateMutability": "nonpayable",
      "type": "function"
    },
    {
      "inputs": [
        {
          "internalType": "address",
          "name": "operator",
          "type": "address"
        },
        {
          "internalType": "bool",
          "name": "approved",
          "type": "bool"
        }
      ],
      "name": "setApprovalForAll",
      "outputs": [],
      "stateMutability": "nonpayable",
      "type": "function"
    },
    {
      "inputs": [],
      "name": "setPriceAndInventory",
      "outputs": [],
      "stateMutability": "nonpayable",
      "type": "function"
    },
    {
      "inputs": [
        {
          "internalType": "string",
          "name": "_newURI",
          "type": "string"
        }
      ],
      "name": "setTokenURI",
      "outputs": [],
      "stateMutability": "nonpayable",
      "type": "function"
    },
    {
      "inputs": [
        {
          "internalType": "bytes4",
          "name": "interfaceId",
          "type": "bytes4"
        }
      ],
      "name": "supportsInterface",
      "outputs": [
        {
          "internalType": "bool",
          "name": "",
          "type": "bool"
        }
      ],
      "stateMutability": "view",
      "type": "function"
    },
    {
      "inputs": [
        {
          "internalType": "uint128",
          "name": "",
          "type": "uint128"
        }
      ],
      "name": "tokenOwners",
      "outputs": [
        {
          "internalType": "address",
          "name": "",
          "type": "address"
        }
      ],
      "stateMutability": "view",
      "type": "function"
    },
    {
      "inputs": [
        {
          "internalType": "uint256",
          "name": "id",
          "type": "uint256"
        }
      ],
      "name": "totalSupply",
      "outputs": [
        {
          "internalType": "uint256",
          "name": "",
          "type": "uint256"
        }
      ],
      "stateMutability": "view",
      "type": "function"
    },
    {
      "inputs": [
        {
          "internalType": "address",
          "name": "newOwner",
          "type": "address"
        }
      ],
      "name": "transferOwnership",
      "outputs": [],
      "stateMutability": "nonpayable",
      "type": "function"
    },
    {
      "inputs": [
        {
          "internalType": "uint256",
          "name": "",
          "type": "uint256"
        }
      ],
      "name": "uri",
      "outputs": [
        {
          "internalType": "string",
          "name": "",
          "type": "string"
        }
      ],
      "stateMutability": "view",
      "type": "function"
    },
    {
      "inputs": [
        {
          "internalType": "uint128",
          "name": "eventNumber",
          "type": "uint128"
        }
      ],
      "name": "viewSaleStatus",
      "outputs": [
        {
          "internalType": "uint128",
          "name": "price",
          "type": "uint128"
        },
        {
          "internalType": "uint128",
          "name": "whitelistCount",
          "type": "uint128"
        },
        {
          "internalType": "bool",
          "name": "isActive",
          "type": "bool"
        },
        {
          "internalType": "bool",
          "name": "isPreSale",
          "type": "bool"
        },
        {
          "internalType": "bool",
          "name": "isPublicSale",
          "type": "bool"
        },
        {
          "internalType": "uint128",
          "name": "minCardId",
          "type": "uint128"
        },
        {
          "internalType": "uint128",
          "name": "maxCardId",
          "type": "uint128"
        }
      ],
      "stateMutability": "view",
      "type": "function"
    },
    {
      "inputs": [
        {
          "internalType": "address payable",
          "name": "_to",
          "type": "address"
        }
      ],
      "name": "withdraw",
      "outputs": [],
      "stateMutability": "nonpayable",
      "type": "function"
    },
    {
      "stateMutability": "payable",
      "type": "receive"
    }
  ],
  "bytecode": "0x60806040526103e86006556008600760006101000a8154816fffffffffffffffffffffffffffffffff02191690836fffffffffffffffffffffffffffffffff1602179055503480156200005157600080fd5b5060088054620000619062000370565b80601f01602080910402602001604051908101604052809291908181526020018280546200008f9062000370565b8015620000e05780601f10620000b457610100808354040283529160200191620000e0565b820191906000526020600020905b815481529060010190602001808311620000c257829003601f168201915b5050505050620000f681620001d660201b60201c565b50620001176200010b620001f260201b60201c565b620001fa60201b60201c565b6000600560018160018154018082558091505003906000526020600020906004020190506000600560018160018154018082558091505003906000526020600020906004020190506000600560018160018154018082558091505003906000526020600020906004020190506000600560018160018154018082558091505003906000526020600020906004020190506000600560018160018154018082558091505003906000526020600020906004020190505050505050620003d5565b8060029080519060200190620001ee929190620002c0565b5050565b600033905090565b6000600360009054906101000a900473ffffffffffffffffffffffffffffffffffffffff16905081600360006101000a81548173ffffffffffffffffffffffffffffffffffffffff021916908373ffffffffffffffffffffffffffffffffffffffff1602179055508173ffffffffffffffffffffffffffffffffffffffff168173ffffffffffffffffffffffffffffffffffffffff167f8be0079c531659141344cd1fd0a4f28419497f9722a3daafe3b4186f6b6457e060405160405180910390a35050565b828054620002ce9062000370565b90600052602060002090601f016020900481019282620002f257600085556200033e565b82601f106200030d57805160ff19168380011785556200033e565b828001600101855582156200033e579182015b828111156200033d57825182559160200191906001019062000320565b5b5090506200034d919062000351565b5090565b5b808211156200036c57600081600090555060010162000352565b5090565b600060028204905060018216806200038957607f821691505b60208210811415620003a0576200039f620003a6565b5b50919050565b7f4e487b7100000000000000000000000000000000000000000000000000000000600052602260045260246000fd5b6191cb80620003e56000396000f3fe60806040526004361061021d5760003560e01c80638269d86b11610123578063d5abeb01116100ab578063ed380e531161006f578063ed380e53146107f4578063f242432a1461081d578063f2fde38b14610846578063f5298aca1461086f578063fdb449f41461089857610224565b8063d5abeb011461070f578063e0df5b6f1461073a578063e8a3d48514610763578063e985e9c51461078e578063ea82580d146107cb57610224565b80639891e75e116100f25780639891e75e1461062c578063996517cf14610655578063a22cb46514610680578063bd85b039146106a9578063d1dea8c3146106e657610224565b80638269d86b14610565578063889f99c3146105a25780638ccb0335146105be5780638da5cb5b1461060157610224565b806343cf3276116101a65780636b20c454116101755780636b20c454146104945780636c0360eb146104bd5780636e08f52a146104e8578063715018a61461052557806379194fee1461053c57610224565b806343cf3276146103d55780634e1273f4146103f15780634f558e791461042e57806351cff8d91461046b57610224565b80630e89341c116101ed5780630e89341c146102e057806314b3b1d11461031d5780632eb2c2d6146103465780632f5c66eb1461036f578063393b7ec3146103ac57610224565b8062fdd58e1461022657806301ffc9a71461026357806307da0988146102a05780630800d0ae146102b757610224565b3661022457005b005b34801561023257600080fd5b5061024d60048036038101906102489190617261565b6108d5565b60405161025a919061820d565b60405180910390f35b34801561026f57600080fd5b5061028a6004803603810190610285919061742b565b61099e565b6040516102979190617d26565b60405180910390f35b3480156102ac57600080fd5b506102b5610a80565b005b3480156102c357600080fd5b506102de60048036038101906102d991906173d7565b6112e4565b005b3480156102ec57600080fd5b5061030760048036038101906103029190617611565b6116f5565b6040516103149190617d41565b60405180910390f35b34801561032957600080fd5b50610344600480360381019061033f91906175c2565b611789565b005b34801561035257600080fd5b5061036d60048036038101906103689190617058565b611a83565b005b34801561037b57600080fd5b5061039660048036038101906103919190616fca565b611b24565b6040516103a39190618183565b60405180910390f35b3480156103b857600080fd5b506103d360048036038101906103ce91906173d7565b611b53565b005b6103ef60048036038101906103ea9190617586565b611e23565b005b3480156103fd57600080fd5b506104186004803603810190610413919061736b565b612b85565b6040516104259190617ccd565b60405180910390f35b34801561043a57600080fd5b5061045560048036038101906104509190617611565b612d36565b6040516104629190617d26565b60405180910390f35b34801561047757600080fd5b50610492600480360381019061048d9190616ff3565b612d4a565b005b3480156104a057600080fd5b506104bb60048036038101906104b691906171a6565b612e80565b005b3480156104c957600080fd5b506104d2612f1d565b6040516104df9190617d41565b60405180910390f35b3480156104f457600080fd5b5061050f600480360381019061050a91906174e7565b612fab565b60405161051c9190617d26565b60405180910390f35b34801561053157600080fd5b5061053a61305d565b005b34801561054857600080fd5b50610563600480360381019061055e9190617586565b6130e5565b005b34801561057157600080fd5b5061058c600480360381019061058791906174be565b613219565b6040516105999190617bf0565b60405180910390f35b6105bc60048036038101906105b79190617586565b61327a565b005b3480156105ca57600080fd5b506105e560048036038101906105e091906174be565b613eb5565b6040516105f8979695949392919061819e565b60405180910390f35b34801561060d57600080fd5b5061061661427e565b6040516106239190617bf0565b60405180910390f35b34801561063857600080fd5b50610653600480360381019061064e91906172ec565b6142a8565b005b34801561066157600080fd5b5061066a614947565b6040516106779190618183565b60405180910390f35b34801561068c57600080fd5b506106a760048036038101906106a29190617225565b614969565b005b3480156106b557600080fd5b506106d060048036038101906106cb9190617611565b61497f565b6040516106dd919061820d565b60405180910390f35b3480156106f257600080fd5b5061070d60048036038101906107089190617523565b61499c565b005b34801561071b57600080fd5b50610724614b9d565b604051610731919061820d565b60405180910390f35b34801561074657600080fd5b50610761600480360381019061075c919061747d565b614ba3565b005b34801561076f57600080fd5b50610778614c39565b6040516107859190617d41565b60405180910390f35b34801561079a57600080fd5b506107b560048036038101906107b0919061701c565b614c59565b6040516107c29190617d26565b60405180910390f35b3480156107d757600080fd5b506107f260048036038101906107ed91906174be565b614ced565b005b34801561080057600080fd5b5061081b60048036038101906108169190617586565b614da5565b005b34801561082957600080fd5b50610844600480360381019061083f9190617117565b61537b565b005b34801561085257600080fd5b5061086d60048036038101906108689190616fca565b61541c565b005b34801561087b57600080fd5b506108966004803603810190610891919061729d565b615514565b005b3480156108a457600080fd5b506108bf60048036038101906108ba91906174be565b6155b1565b6040516108cc9190617bf0565b60405180910390f35b60008073ffffffffffffffffffffffffffffffffffffffff168373ffffffffffffffffffffffffffffffffffffffff161415610946576040517f08c379a000000000000000000000000000000000000000000000000000000000815260040161093d90617da3565b60405180910390fd5b60008083815260200190815260200160002060008473ffffffffffffffffffffffffffffffffffffffff1673ffffffffffffffffffffffffffffffffffffffff16815260200190815260200160002054905092915050565b60007fd9b67a26000000000000000000000000000000000000000000000000000000007bffffffffffffffffffffffffffffffffffffffffffffffffffffffff1916827bffffffffffffffffffffffffffffffffffffffffffffffffffffffff19161480610a6957507f0e89341c000000000000000000000000000000000000000000000000000000007bffffffffffffffffffffffffffffffffffffffffffffffffffffffff1916827bffffffffffffffffffffffffffffffffffffffffffffffffffffffff1916145b80610a795750610a78826155e4565b5b9050919050565b610a8861564e565b73ffffffffffffffffffffffffffffffffffffffff16610aa661427e565b73ffffffffffffffffffffffffffffffffffffffff1614610afc576040517f08c379a0000000000000000000000000000000000000000000000000000000008152600401610af390617fc3565b60405180910390fd5b6702c68af0bb1400006005600081548110610b40577f4e487b7100000000000000000000000000000000000000000000000000000000600052603260045260246000fd5b906000526020600020906004020160000160006101000a8154816fffffffffffffffffffffffffffffffff02191690836fffffffffffffffffffffffffffffffff160217905550670853a0d2313c00006005600181548110610bcb577f4e487b7100000000000000000000000000000000000000000000000000000000600052603260045260246000fd5b906000526020600020906004020160000160006101000a8154816fffffffffffffffffffffffffffffffff02191690836fffffffffffffffffffffffffffffffff1602179055506718fae27693b400006005600281548110610c56577f4e487b7100000000000000000000000000000000000000000000000000000000600052603260045260246000fd5b906000526020600020906004020160000160006101000a8154816fffffffffffffffffffffffffffffffff02191690836fffffffffffffffffffffffffffffffff160217905550674af0a763bb1c00006005600381548110610ce1577f4e487b7100000000000000000000000000000000000000000000000000000000600052603260045260246000fd5b906000526020600020906004020160000160006101000a8154816fffffffffffffffffffffffffffffffff02191690836fffffffffffffffffffffffffffffffff16021790555067e0d1f62b315400006005600481548110610d6c577f4e487b7100000000000000000000000000000000000000000000000000000000600052603260045260246000fd5b906000526020600020906004020160000160006101000a8154816fffffffffffffffffffffffffffffffff02191690836fffffffffffffffffffffffffffffffff16021790555060006005600081548110610df0577f4e487b7100000000000000000000000000000000000000000000000000000000600052603260045260246000fd5b906000526020600020906004020160010160006101000a8154816fffffffffffffffffffffffffffffffff02191690836fffffffffffffffffffffffffffffffff16021790555060c86005600181548110610e74577f4e487b7100000000000000000000000000000000000000000000000000000000600052603260045260246000fd5b906000526020600020906004020160010160006101000a8154816fffffffffffffffffffffffffffffffff02191690836fffffffffffffffffffffffffffffffff1602179055506101906005600281548110610ef9577f4e487b7100000000000000000000000000000000000000000000000000000000600052603260045260246000fd5b906000526020600020906004020160010160006101000a8154816fffffffffffffffffffffffffffffffff02191690836fffffffffffffffffffffffffffffffff1602179055506102586005600381548110610f7e577f4e487b7100000000000000000000000000000000000000000000000000000000600052603260045260246000fd5b906000526020600020906004020160010160006101000a8154816fffffffffffffffffffffffffffffffff02191690836fffffffffffffffffffffffffffffffff1602179055506103206005600481548110611003577f4e487b7100000000000000000000000000000000000000000000000000000000600052603260045260246000fd5b906000526020600020906004020160010160006101000a8154816fffffffffffffffffffffffffffffffff02191690836fffffffffffffffffffffffffffffffff16021790555060c76005600081548110611087577f4e487b7100000000000000000000000000000000000000000000000000000000600052603260045260246000fd5b906000526020600020906004020160010160106101000a8154816fffffffffffffffffffffffffffffffff02191690836fffffffffffffffffffffffffffffffff16021790555061018f600560018154811061110c577f4e487b7100000000000000000000000000000000000000000000000000000000600052603260045260246000fd5b906000526020600020906004020160010160106101000a8154816fffffffffffffffffffffffffffffffff02191690836fffffffffffffffffffffffffffffffff1602179055506102576005600281548110611191577f4e487b7100000000000000000000000000000000000000000000000000000000600052603260045260246000fd5b906000526020600020906004020160010160106101000a8154816fffffffffffffffffffffffffffffffff02191690836fffffffffffffffffffffffffffffffff16021790555061031f6005600381548110611216577f4e487b7100000000000000000000000000000000000000000000000000000000600052603260045260246000fd5b906000526020600020906004020160010160106101000a8154816fffffffffffffffffffffffffffffffff02191690836fffffffffffffffffffffffffffffffff1602179055506103e7600560048154811061129b577f4e487b7100000000000000000000000000000000000000000000000000000000600052603260045260246000fd5b906000526020600020906004020160010160106101000a8154816fffffffffffffffffffffffffffffffff02191690836fffffffffffffffffffffffffffffffff160217905550565b6112ec61564e565b73ffffffffffffffffffffffffffffffffffffffff1661130a61427e565b73ffffffffffffffffffffffffffffffffffffffff1614611360576040517f08c379a000000000000000000000000000000000000000000000000000000000815260040161135790617fc3565b60405180910390fd5b60005b8251816fffffffffffffffffffffffffffffffff1610156116f057600015156005836fffffffffffffffffffffffffffffffff16815481106113ce577f4e487b7100000000000000000000000000000000000000000000000000000000600052603260045260246000fd5b9060005260206000209060040201600201600085846fffffffffffffffffffffffffffffffff168151811061142c577f4e487b7100000000000000000000000000000000000000000000000000000000600052603260045260246000fd5b602002602001015173ffffffffffffffffffffffffffffffffffffffff1673ffffffffffffffffffffffffffffffffffffffff16815260200190815260200160002060009054906101000a900460ff16151514156114bf576040517f08c379a00000000000000000000000000000000000000000000000000000000081526004016114b690617e23565b60405180910390fd5b60006005836fffffffffffffffffffffffffffffffff168154811061150d577f4e487b7100000000000000000000000000000000000000000000000000000000600052603260045260246000fd5b9060005260206000209060040201600201600085846fffffffffffffffffffffffffffffffff168151811061156b577f4e487b7100000000000000000000000000000000000000000000000000000000600052603260045260246000fd5b602002602001015173ffffffffffffffffffffffffffffffffffffffff1673ffffffffffffffffffffffffffffffffffffffff16815260200190815260200160002060006101000a81548160ff02191690831515021790555060016005836fffffffffffffffffffffffffffffffff1681548110611612577f4e487b7100000000000000000000000000000000000000000000000000000000600052603260045260246000fd5b906000526020600020906004020160030160009054906101000a90046fffffffffffffffffffffffffffffffff1661164a9190618469565b6005836fffffffffffffffffffffffffffffffff1681548110611696577f4e487b7100000000000000000000000000000000000000000000000000000000600052603260045260246000fd5b906000526020600020906004020160030160006101000a8154816fffffffffffffffffffffffffffffffff02191690836fffffffffffffffffffffffffffffffff16021790555080806116e890618618565b915050611363565b505050565b606060028054611704906185b5565b80601f0160208091040260200160405190810160405280929190818152602001828054611730906185b5565b801561177d5780601f106117525761010080835404028352916020019161177d565b820191906000526020600020905b81548152906001019060200180831161176057829003601f168201915b50505050509050919050565b61179161564e565b73ffffffffffffffffffffffffffffffffffffffff166117af61427e565b73ffffffffffffffffffffffffffffffffffffffff1614611805576040517f08c379a00000000000000000000000000000000000000000000000000000000081526004016117fc90617fc3565b60405180910390fd5b6000826fffffffffffffffffffffffffffffffff161015801561183b57506103e7826fffffffffffffffffffffffffffffffff16105b61187a576040517f08c379a000000000000000000000000000000000000000000000000000000000815260040161187190617e63565b60405180910390fd5b6000816fffffffffffffffffffffffffffffffff16101580156118b057506103e7816fffffffffffffffffffffffffffffffff16105b6118ef576040517f08c379a00000000000000000000000000000000000000000000000000000000081526004016118e690618063565b60405180910390fd5b806fffffffffffffffffffffffffffffffff16826fffffffffffffffffffffffffffffffff161415611956576040517f08c379a000000000000000000000000000000000000000000000000000000000815260040161194d90617ea3565b60405180910390fd5b816005846fffffffffffffffffffffffffffffffff16815481106119a3577f4e487b7100000000000000000000000000000000000000000000000000000000600052603260045260246000fd5b906000526020600020906004020160010160006101000a8154816fffffffffffffffffffffffffffffffff02191690836fffffffffffffffffffffffffffffffff160217905550806005846fffffffffffffffffffffffffffffffff1681548110611a37577f4e487b7100000000000000000000000000000000000000000000000000000000600052603260045260246000fd5b906000526020600020906004020160010160106101000a8154816fffffffffffffffffffffffffffffffff02191690836fffffffffffffffffffffffffffffffff160217905550505050565b611a8b61564e565b73ffffffffffffffffffffffffffffffffffffffff168573ffffffffffffffffffffffffffffffffffffffff161480611ad15750611ad085611acb61564e565b614c59565b5b611b10576040517f08c379a0000000000000000000000000000000000000000000000000000000008152600401611b0790617f03565b60405180910390fd5b611b1d8585858585615656565b5050505050565b600a6020528060005260406000206000915054906101000a90046fffffffffffffffffffffffffffffffff1681565b611b5b61564e565b73ffffffffffffffffffffffffffffffffffffffff16611b7961427e565b73ffffffffffffffffffffffffffffffffffffffff1614611bcf576040517f08c379a0000000000000000000000000000000000000000000000000000000008152600401611bc690617fc3565b60405180910390fd5b60005b8251816fffffffffffffffffffffffffffffffff161015611e1e5760016005836fffffffffffffffffffffffffffffffff1681548110611c3b577f4e487b7100000000000000000000000000000000000000000000000000000000600052603260045260246000fd5b9060005260206000209060040201600201600085846fffffffffffffffffffffffffffffffff1681518110611c99577f4e487b7100000000000000000000000000000000000000000000000000000000600052603260045260246000fd5b602002602001015173ffffffffffffffffffffffffffffffffffffffff1673ffffffffffffffffffffffffffffffffffffffff16815260200190815260200160002060006101000a81548160ff02191690831515021790555060016005836fffffffffffffffffffffffffffffffff1681548110611d40577f4e487b7100000000000000000000000000000000000000000000000000000000600052603260045260246000fd5b906000526020600020906004020160030160009054906101000a90046fffffffffffffffffffffffffffffffff16611d7891906183cd565b6005836fffffffffffffffffffffffffffffffff1681548110611dc4577f4e487b7100000000000000000000000000000000000000000000000000000000600052603260045260246000fd5b906000526020600020906004020160030160006101000a8154816fffffffffffffffffffffffffffffffff02191690836fffffffffffffffffffffffffffffffff1602179055508080611e1690618618565b915050611bd2565b505050565b818160006005836fffffffffffffffffffffffffffffffff1681548110611e73577f4e487b7100000000000000000000000000000000000000000000000000000000600052603260045260246000fd5b906000526020600020906004020160000160009054906101000a90046fffffffffffffffffffffffffffffffff16905060006005846fffffffffffffffffffffffffffffffff1681548110611ef1577f4e487b7100000000000000000000000000000000000000000000000000000000600052603260045260246000fd5b906000526020600020906004020160010160009054906101000a90046fffffffffffffffffffffffffffffffff16905060006005856fffffffffffffffffffffffffffffffff1681548110611f6f577f4e487b7100000000000000000000000000000000000000000000000000000000600052603260045260246000fd5b906000526020600020906004020160010160109054906101000a90046fffffffffffffffffffffffffffffffff1690506005856fffffffffffffffffffffffffffffffff1681548110611feb577f4e487b7100000000000000000000000000000000000000000000000000000000600052603260045260246000fd5b906000526020600020906004020160000160109054906101000a900460ff16612049576040517f08c379a000000000000000000000000000000000000000000000000000000000815260040161204090618003565b60405180910390fd5b6005856fffffffffffffffffffffffffffffffff1681548110612095577f4e487b7100000000000000000000000000000000000000000000000000000000600052603260045260246000fd5b906000526020600020906004020160000160119054906101000a900460ff168061212657506005856fffffffffffffffffffffffffffffffff1681548110612106577f4e487b7100000000000000000000000000000000000000000000000000000000600052603260045260246000fd5b906000526020600020906004020160000160129054906101000a900460ff165b612165576040517f08c379a000000000000000000000000000000000000000000000000000000000815260040161215c90617ee3565b60405180910390fd5b6005856fffffffffffffffffffffffffffffffff16815481106121b1577f4e487b7100000000000000000000000000000000000000000000000000000000600052603260045260246000fd5b906000526020600020906004020160020160003373ffffffffffffffffffffffffffffffffffffffff1673ffffffffffffffffffffffffffffffffffffffff16815260200190815260200160002060009054906101000a900460ff1661224c576040517f08c379a000000000000000000000000000000000000000000000000000000000815260040161224390617fa3565b60405180910390fd5b816fffffffffffffffffffffffffffffffff16846fffffffffffffffffffffffffffffffff16101580156122a45750806fffffffffffffffffffffffffffffffff16846fffffffffffffffffffffffffffffffff1611155b6122e3576040517f08c379a00000000000000000000000000000000000000000000000000000000081526004016122da90618023565b60405180910390fd5b600060016006546122f4919061849d565b1015612335576040517f08c379a000000000000000000000000000000000000000000000000000000000815260040161232c90617dc3565b60405180910390fd5b612350846fffffffffffffffffffffffffffffffff16612d36565b15612390576040517f08c379a000000000000000000000000000000000000000000000000000000000815260040161238790617f23565b60405180910390fd5b600760009054906101000a90046fffffffffffffffffffffffffffffffff166fffffffffffffffffffffffffffffffff16600a60003373ffffffffffffffffffffffffffffffffffffffff1673ffffffffffffffffffffffffffffffffffffffff16815260200190815260200160002060009054906101000a90046fffffffffffffffffffffffffffffffff166fffffffffffffffffffffffffffffffff161415612470576040517f08c379a000000000000000000000000000000000000000000000000000000000815260040161246790617f43565b60405180910390fd5b826fffffffffffffffffffffffffffffffff163410156124c5576040517f08c379a00000000000000000000000000000000000000000000000000000000081526004016124bc90618163565b60405180910390fd5b600b60003373ffffffffffffffffffffffffffffffffffffffff1673ffffffffffffffffffffffffffffffffffffffff16815260200190815260200160002060009054906101000a900460ff16156125275760018461252491906183cd565b93505b600060018861253691906183cd565b905060006005826fffffffffffffffffffffffffffffffff1681548110612586577f4e487b7100000000000000000000000000000000000000000000000000000000600052603260045260246000fd5b906000526020600020906004020160030160009054906101000a90046fffffffffffffffffffffffffffffffff1690506125e433896fffffffffffffffffffffffffffffffff166001604051806020016040528060008152506159b6565b33600c60008a6fffffffffffffffffffffffffffffffff166fffffffffffffffffffffffffffffffff16815260200190815260200160002060006101000a81548173ffffffffffffffffffffffffffffffffffffffff021916908373ffffffffffffffffffffffffffffffffffffffff1602179055506001600654612669919061849d565b6006819055506001600a60003373ffffffffffffffffffffffffffffffffffffffff1673ffffffffffffffffffffffffffffffffffffffff16815260200190815260200160002060009054906101000a90046fffffffffffffffffffffffffffffffff166126d791906183cd565b600a60003373ffffffffffffffffffffffffffffffffffffffff1673ffffffffffffffffffffffffffffffffffffffff16815260200190815260200160002060006101000a8154816fffffffffffffffffffffffffffffffff02191690836fffffffffffffffffffffffffffffffff1602179055506000886fffffffffffffffffffffffffffffffff1614156127c0576001600b60003373ffffffffffffffffffffffffffffffffffffffff1673ffffffffffffffffffffffffffffffffffffffff16815260200190815260200160002060006101000a81548160ff0219169083151502179055505b60c8886fffffffffffffffffffffffffffffffff161415612834576001600b60003373ffffffffffffffffffffffffffffffffffffffff1673ffffffffffffffffffffffffffffffffffffffff16815260200190815260200160002060006101000a81548160ff0219169083151502179055505b610190886fffffffffffffffffffffffffffffffff1614156128a9576001600b60003373ffffffffffffffffffffffffffffffffffffffff1673ffffffffffffffffffffffffffffffffffffffff16815260200190815260200160002060006101000a81548160ff0219169083151502179055505b610258886fffffffffffffffffffffffffffffffff16141561291e576001600b60003373ffffffffffffffffffffffffffffffffffffffff1673ffffffffffffffffffffffffffffffffffffffff16815260200190815260200160002060006101000a81548160ff0219169083151502179055505b610320886fffffffffffffffffffffffffffffffff161415612993576001600b60003373ffffffffffffffffffffffffffffffffffffffff1673ffffffffffffffffffffffffffffffffffffffff16815260200190815260200160002060006101000a81548160ff0219169083151502179055505b6004826fffffffffffffffffffffffffffffffff1611612b7a5760016005836fffffffffffffffffffffffffffffffff16815481106129fb577f4e487b7100000000000000000000000000000000000000000000000000000000600052603260045260246000fd5b906000526020600020906004020160020160003373ffffffffffffffffffffffffffffffffffffffff1673ffffffffffffffffffffffffffffffffffffffff16815260200190815260200160002060006101000a81548160ff02191690831515021790555060016005836fffffffffffffffffffffffffffffffff1681548110612aae577f4e487b7100000000000000000000000000000000000000000000000000000000600052603260045260246000fd5b906000526020600020906004020160030160009054906101000a90046fffffffffffffffffffffffffffffffff16612ae691906183cd565b6005836fffffffffffffffffffffffffffffffff1681548110612b32577f4e487b7100000000000000000000000000000000000000000000000000000000600052603260045260246000fd5b906000526020600020906004020160030160006101000a8154816fffffffffffffffffffffffffffffffff02191690836fffffffffffffffffffffffffffffffff1602179055505b505050505050505050565b60608151835114612bcb576040517f08c379a0000000000000000000000000000000000000000000000000000000008152600401612bc2906180c3565b60405180910390fd5b6000835167ffffffffffffffff811115612c0e577f4e487b7100000000000000000000000000000000000000000000000000000000600052604160045260246000fd5b604051908082528060200260200182016040528015612c3c5781602001602082028036833780820191505090505b50905060005b8451811015612d2b57612cd5858281518110612c87577f4e487b7100000000000000000000000000000000000000000000000000000000600052603260045260246000fd5b6020026020010151858381518110612cc8577f4e487b7100000000000000000000000000000000000000000000000000000000600052603260045260246000fd5b60200260200101516108d5565b828281518110612d0e577f4e487b7100000000000000000000000000000000000000000000000000000000600052603260045260246000fd5b60200260200101818152505080612d2490618651565b9050612c42565b508091505092915050565b600080612d428361497f565b119050919050565b612d5261564e565b73ffffffffffffffffffffffffffffffffffffffff16612d7061427e565b73ffffffffffffffffffffffffffffffffffffffff1614612dc6576040517f08c379a0000000000000000000000000000000000000000000000000000000008152600401612dbd90617fc3565b60405180910390fd5b600073ffffffffffffffffffffffffffffffffffffffff168173ffffffffffffffffffffffffffffffffffffffff161415612e36576040517f08c379a0000000000000000000000000000000000000000000000000000000008152600401612e2d90618143565b60405180910390fd5b8073ffffffffffffffffffffffffffffffffffffffff166108fc479081150290604051600060405180830381858888f19350505050158015612e7c573d6000803e3d6000fd5b5050565b612e8861564e565b73ffffffffffffffffffffffffffffffffffffffff168373ffffffffffffffffffffffffffffffffffffffff161480612ece5750612ecd83612ec861564e565b614c59565b5b612f0d576040517f08c379a0000000000000000000000000000000000000000000000000000000008152600401612f0490617e43565b60405180910390fd5b612f18838383615b4c565b505050565b60088054612f2a906185b5565b80601f0160208091040260200160405190810160405280929190818152602001828054612f56906185b5565b8015612fa35780601f10612f7857610100808354040283529160200191612fa3565b820191906000526020600020905b815481529060010190602001808311612f8657829003601f168201915b505050505081565b60006005836fffffffffffffffffffffffffffffffff1681548110612ff9577f4e487b7100000000000000000000000000000000000000000000000000000000600052603260045260246000fd5b906000526020600020906004020160020160008373ffffffffffffffffffffffffffffffffffffffff1673ffffffffffffffffffffffffffffffffffffffff16815260200190815260200160002060009054906101000a900460ff16905092915050565b61306561564e565b73ffffffffffffffffffffffffffffffffffffffff1661308361427e565b73ffffffffffffffffffffffffffffffffffffffff16146130d9576040517f08c379a00000000000000000000000000000000000000000000000000000000081526004016130d090617fc3565b60405180910390fd5b6130e36000615e49565b565b6130ed61564e565b73ffffffffffffffffffffffffffffffffffffffff1661310b61427e565b73ffffffffffffffffffffffffffffffffffffffff1614613161576040517f08c379a000000000000000000000000000000000000000000000000000000000815260040161315890617fc3565b60405180910390fd5b6004826fffffffffffffffffffffffffffffffff16111561318157600080fd5b806005836fffffffffffffffffffffffffffffffff16815481106131ce577f4e487b7100000000000000000000000000000000000000000000000000000000600052603260045260246000fd5b906000526020600020906004020160000160006101000a8154816fffffffffffffffffffffffffffffffff02191690836fffffffffffffffffffffffffffffffff1602179055505050565b6000600c6000836fffffffffffffffffffffffffffffffff166fffffffffffffffffffffffffffffffff16815260200190815260200160002060009054906101000a900473ffffffffffffffffffffffffffffffffffffffff169050919050565b818160006005836fffffffffffffffffffffffffffffffff16815481106132ca577f4e487b7100000000000000000000000000000000000000000000000000000000600052603260045260246000fd5b906000526020600020906004020160000160009054906101000a90046fffffffffffffffffffffffffffffffff16905060006005846fffffffffffffffffffffffffffffffff1681548110613348577f4e487b7100000000000000000000000000000000000000000000000000000000600052603260045260246000fd5b906000526020600020906004020160010160009054906101000a90046fffffffffffffffffffffffffffffffff16905060006005856fffffffffffffffffffffffffffffffff16815481106133c6577f4e487b7100000000000000000000000000000000000000000000000000000000600052603260045260246000fd5b906000526020600020906004020160010160109054906101000a90046fffffffffffffffffffffffffffffffff1690506005856fffffffffffffffffffffffffffffffff1681548110613442577f4e487b7100000000000000000000000000000000000000000000000000000000600052603260045260246000fd5b906000526020600020906004020160000160109054906101000a900460ff166134a0576040517f08c379a000000000000000000000000000000000000000000000000000000000815260040161349790618003565b60405180910390fd5b6005856fffffffffffffffffffffffffffffffff16815481106134ec577f4e487b7100000000000000000000000000000000000000000000000000000000600052603260045260246000fd5b906000526020600020906004020160000160119054906101000a900460ff168061357d57506005856fffffffffffffffffffffffffffffffff168154811061355d577f4e487b7100000000000000000000000000000000000000000000000000000000600052603260045260246000fd5b906000526020600020906004020160000160129054906101000a900460ff165b6135bc576040517f08c379a00000000000000000000000000000000000000000000000000000000081526004016135b390617ee3565b60405180910390fd5b6005856fffffffffffffffffffffffffffffffff1681548110613608577f4e487b7100000000000000000000000000000000000000000000000000000000600052603260045260246000fd5b906000526020600020906004020160020160003373ffffffffffffffffffffffffffffffffffffffff1673ffffffffffffffffffffffffffffffffffffffff16815260200190815260200160002060009054906101000a900460ff166136a3576040517f08c379a000000000000000000000000000000000000000000000000000000000815260040161369a90617fa3565b60405180910390fd5b816fffffffffffffffffffffffffffffffff16846fffffffffffffffffffffffffffffffff16101580156136fb5750806fffffffffffffffffffffffffffffffff16846fffffffffffffffffffffffffffffffff1611155b61373a576040517f08c379a000000000000000000000000000000000000000000000000000000000815260040161373190618023565b60405180910390fd5b6000600160065461374b919061849d565b101561378c576040517f08c379a000000000000000000000000000000000000000000000000000000000815260040161378390617dc3565b60405180910390fd5b6137a7846fffffffffffffffffffffffffffffffff16612d36565b156137e7576040517f08c379a00000000000000000000000000000000000000000000000000000000081526004016137de90617f23565b60405180910390fd5b600760009054906101000a90046fffffffffffffffffffffffffffffffff166fffffffffffffffffffffffffffffffff16600a60003373ffffffffffffffffffffffffffffffffffffffff1673ffffffffffffffffffffffffffffffffffffffff16815260200190815260200160002060009054906101000a90046fffffffffffffffffffffffffffffffff166fffffffffffffffffffffffffffffffff1614156138c7576040517f08c379a00000000000000000000000000000000000000000000000000000000081526004016138be90617f43565b60405180910390fd5b826fffffffffffffffffffffffffffffffff1634101561391c576040517f08c379a000000000000000000000000000000000000000000000000000000000815260040161391390618163565b60405180910390fd5b600b60003373ffffffffffffffffffffffffffffffffffffffff1673ffffffffffffffffffffffffffffffffffffffff16815260200190815260200160002060009054906101000a900460ff161561397e5760018461397b91906183cd565b93505b600060018861398d91906183cd565b905060006005826fffffffffffffffffffffffffffffffff16815481106139dd577f4e487b7100000000000000000000000000000000000000000000000000000000600052603260045260246000fd5b906000526020600020906004020160030160009054906101000a90046fffffffffffffffffffffffffffffffff169050613a3b33896fffffffffffffffffffffffffffffffff166001604051806020016040528060008152506159b6565b33600c60008a6fffffffffffffffffffffffffffffffff166fffffffffffffffffffffffffffffffff16815260200190815260200160002060006101000a81548173ffffffffffffffffffffffffffffffffffffffff021916908373ffffffffffffffffffffffffffffffffffffffff1602179055506001600654613ac0919061849d565b6006819055506001600a60003373ffffffffffffffffffffffffffffffffffffffff1673ffffffffffffffffffffffffffffffffffffffff16815260200190815260200160002060009054906101000a90046fffffffffffffffffffffffffffffffff16613b2e91906183cd565b600a60003373ffffffffffffffffffffffffffffffffffffffff1673ffffffffffffffffffffffffffffffffffffffff16815260200190815260200160002060006101000a8154816fffffffffffffffffffffffffffffffff02191690836fffffffffffffffffffffffffffffffff1602179055506000886fffffffffffffffffffffffffffffffff161480613bd6575060c8886fffffffffffffffffffffffffffffffff16145b15613c34576001600b60003373ffffffffffffffffffffffffffffffffffffffff1673ffffffffffffffffffffffffffffffffffffffff16815260200190815260200160002060006101000a81548160ff0219169083151502179055505b610190886fffffffffffffffffffffffffffffffff161480613c695750610258886fffffffffffffffffffffffffffffffff16145b15613cc7576001600b60003373ffffffffffffffffffffffffffffffffffffffff1673ffffffffffffffffffffffffffffffffffffffff16815260200190815260200160002060006101000a81548160ff0219169083151502179055505b610320886fffffffffffffffffffffffffffffffff161415613d3c576001600b60003373ffffffffffffffffffffffffffffffffffffffff1673ffffffffffffffffffffffffffffffffffffffff16815260200190815260200160002060006101000a81548160ff0219169083151502179055505b6004826fffffffffffffffffffffffffffffffff1611613eaa5760016005836fffffffffffffffffffffffffffffffff1681548110613da4577f4e487b7100000000000000000000000000000000000000000000000000000000600052603260045260246000fd5b906000526020600020906004020160020160003373ffffffffffffffffffffffffffffffffffffffff1673ffffffffffffffffffffffffffffffffffffffff16815260200190815260200160002060006101000a81548160ff021916908315150217905550600181613e1691906183cd565b6005836fffffffffffffffffffffffffffffffff1681548110613e62577f4e487b7100000000000000000000000000000000000000000000000000000000600052603260045260246000fd5b906000526020600020906004020160030160006101000a8154816fffffffffffffffffffffffffffffffff02191690836fffffffffffffffffffffffffffffffff1602179055505b505050505050505050565b6000806000806000806000613ec861564e565b73ffffffffffffffffffffffffffffffffffffffff16613ee661427e565b73ffffffffffffffffffffffffffffffffffffffff1614613f3c576040517f08c379a0000000000000000000000000000000000000000000000000000000008152600401613f3390617fc3565b60405180910390fd5b6005886fffffffffffffffffffffffffffffffff1681548110613f88577f4e487b7100000000000000000000000000000000000000000000000000000000600052603260045260246000fd5b906000526020600020906004020160000160009054906101000a90046fffffffffffffffffffffffffffffffff1696506005886fffffffffffffffffffffffffffffffff1681548110614004577f4e487b7100000000000000000000000000000000000000000000000000000000600052603260045260246000fd5b906000526020600020906004020160030160009054906101000a90046fffffffffffffffffffffffffffffffff1695506005886fffffffffffffffffffffffffffffffff1681548110614080577f4e487b7100000000000000000000000000000000000000000000000000000000600052603260045260246000fd5b906000526020600020906004020160000160109054906101000a900460ff1694506005886fffffffffffffffffffffffffffffffff16815481106140ed577f4e487b7100000000000000000000000000000000000000000000000000000000600052603260045260246000fd5b906000526020600020906004020160000160119054906101000a900460ff1693506005886fffffffffffffffffffffffffffffffff168154811061415a577f4e487b7100000000000000000000000000000000000000000000000000000000600052603260045260246000fd5b906000526020600020906004020160000160129054906101000a900460ff1692506005886fffffffffffffffffffffffffffffffff16815481106141c7577f4e487b7100000000000000000000000000000000000000000000000000000000600052603260045260246000fd5b906000526020600020906004020160010160009054906101000a90046fffffffffffffffffffffffffffffffff1691506005886fffffffffffffffffffffffffffffffff1681548110614243577f4e487b7100000000000000000000000000000000000000000000000000000000600052603260045260246000fd5b906000526020600020906004020160010160109054906101000a90046fffffffffffffffffffffffffffffffff169050919395979092949650565b6000600360009054906101000a900473ffffffffffffffffffffffffffffffffffffffff16905090565b6142b061564e565b73ffffffffffffffffffffffffffffffffffffffff166142ce61427e565b73ffffffffffffffffffffffffffffffffffffffff1614614324576040517f08c379a000000000000000000000000000000000000000000000000000000000815260040161431b90617fc3565b60405180910390fd5b60005b8351816fffffffffffffffffffffffffffffffff161015614941576103e883826fffffffffffffffffffffffffffffffff1681518110614390577f4e487b7100000000000000000000000000000000000000000000000000000000600052603260045260246000fd5b60200260200101516fffffffffffffffffffffffffffffffff16106143ea576040517f08c379a00000000000000000000000000000000000000000000000000000000081526004016143e190618083565b60405180910390fd5b600083516006546143fb919061849d565b101561443c576040517f08c379a000000000000000000000000000000000000000000000000000000000815260040161443390618043565b60405180910390fd5b6144a983826fffffffffffffffffffffffffffffffff168151811061448a577f4e487b7100000000000000000000000000000000000000000000000000000000600052603260045260246000fd5b60200260200101516fffffffffffffffffffffffffffffffff16612d36565b156144e9576040517f08c379a00000000000000000000000000000000000000000000000000000000081526004016144e0906180e3565b60405180910390fd5b6145e184826fffffffffffffffffffffffffffffffff1681518110614537577f4e487b7100000000000000000000000000000000000000000000000000000000600052603260045260246000fd5b602002602001015184836fffffffffffffffffffffffffffffffff168151811061458a577f4e487b7100000000000000000000000000000000000000000000000000000000600052603260045260246000fd5b60200260200101516fffffffffffffffffffffffffffffffff1660016040518060400160405280600281526020017f30780000000000000000000000000000000000000000000000000000000000008152506159b6565b82516006546145f0919061849d565b60068190555083816fffffffffffffffffffffffffffffffff1681518110614641577f4e487b7100000000000000000000000000000000000000000000000000000000600052603260045260246000fd5b6020026020010151600c600085846fffffffffffffffffffffffffffffffff1681518110614698577f4e487b7100000000000000000000000000000000000000000000000000000000600052603260045260246000fd5b60200260200101516fffffffffffffffffffffffffffffffff166fffffffffffffffffffffffffffffffff16815260200190815260200160002060006101000a81548173ffffffffffffffffffffffffffffffffffffffff021916908373ffffffffffffffffffffffffffffffffffffffff16021790555060016005836fffffffffffffffffffffffffffffffff168154811061475e577f4e487b7100000000000000000000000000000000000000000000000000000000600052603260045260246000fd5b9060005260206000209060040201600201600086846fffffffffffffffffffffffffffffffff16815181106147bc577f4e487b7100000000000000000000000000000000000000000000000000000000600052603260045260246000fd5b602002602001015173ffffffffffffffffffffffffffffffffffffffff1673ffffffffffffffffffffffffffffffffffffffff16815260200190815260200160002060006101000a81548160ff02191690831515021790555060016005836fffffffffffffffffffffffffffffffff1681548110614863577f4e487b7100000000000000000000000000000000000000000000000000000000600052603260045260246000fd5b906000526020600020906004020160030160009054906101000a90046fffffffffffffffffffffffffffffffff1661489b91906183cd565b6005836fffffffffffffffffffffffffffffffff16815481106148e7577f4e487b7100000000000000000000000000000000000000000000000000000000600052603260045260246000fd5b906000526020600020906004020160030160006101000a8154816fffffffffffffffffffffffffffffffff02191690836fffffffffffffffffffffffffffffffff160217905550808061493990618618565b915050614327565b50505050565b600760009054906101000a90046fffffffffffffffffffffffffffffffff1681565b61497b61497461564e565b8383615f0f565b5050565b600060046000838152602001908152602001600020549050919050565b6149a461564e565b73ffffffffffffffffffffffffffffffffffffffff166149c261427e565b73ffffffffffffffffffffffffffffffffffffffff1614614a18576040517f08c379a0000000000000000000000000000000000000000000000000000000008152600401614a0f90617fc3565b60405180910390fd5b6004846fffffffffffffffffffffffffffffffff161115614a3857600080fd5b826005856fffffffffffffffffffffffffffffffff1681548110614a85577f4e487b7100000000000000000000000000000000000000000000000000000000600052603260045260246000fd5b906000526020600020906004020160000160106101000a81548160ff021916908315150217905550816005856fffffffffffffffffffffffffffffffff1681548110614afa577f4e487b7100000000000000000000000000000000000000000000000000000000600052603260045260246000fd5b906000526020600020906004020160000160116101000a81548160ff021916908315150217905550806005856fffffffffffffffffffffffffffffffff1681548110614b6f577f4e487b7100000000000000000000000000000000000000000000000000000000600052603260045260246000fd5b906000526020600020906004020160000160126101000a81548160ff02191690831515021790555050505050565b60065481565b614bab61564e565b73ffffffffffffffffffffffffffffffffffffffff16614bc961427e565b73ffffffffffffffffffffffffffffffffffffffff1614614c1f576040517f08c379a0000000000000000000000000000000000000000000000000000000008152600401614c1690617fc3565b60405180910390fd5b8060089080519060200190614c35929190616c02565b5050565b606060405180606001604052806035815260200161916160359139905090565b6000600160008473ffffffffffffffffffffffffffffffffffffffff1673ffffffffffffffffffffffffffffffffffffffff16815260200190815260200160002060008373ffffffffffffffffffffffffffffffffffffffff1673ffffffffffffffffffffffffffffffffffffffff16815260200190815260200160002060009054906101000a900460ff16905092915050565b614cf561564e565b73ffffffffffffffffffffffffffffffffffffffff16614d1361427e565b73ffffffffffffffffffffffffffffffffffffffff1614614d69576040517f08c379a0000000000000000000000000000000000000000000000000000000008152600401614d6090617fc3565b60405180910390fd5b80600760006101000a8154816fffffffffffffffffffffffffffffffff02191690836fffffffffffffffffffffffffffffffff16021790555050565b6000600c6000846fffffffffffffffffffffffffffffffff166fffffffffffffffffffffffffffffffff16815260200190815260200160002060009054906101000a900473ffffffffffffffffffffffffffffffffffffffff1690506000614e1f33856fffffffffffffffffffffffffffffffff166108d5565b11614e5f576040517f08c379a0000000000000000000000000000000000000000000000000000000008152600401614e5690617fe3565b60405180910390fd5b6005826fffffffffffffffffffffffffffffffff1681548110614eab577f4e487b7100000000000000000000000000000000000000000000000000000000600052603260045260246000fd5b906000526020600020906004020160000160109054906101000a900460ff1615614f0a576040517f08c379a0000000000000000000000000000000000000000000000000000000008152600401614f0190617e83565b60405180910390fd5b60005b6004816fffffffffffffffffffffffffffffffff161161524c576005816fffffffffffffffffffffffffffffffff1681548110614f73577f4e487b7100000000000000000000000000000000000000000000000000000000600052603260045260246000fd5b906000526020600020906004020160020160008373ffffffffffffffffffffffffffffffffffffffff1673ffffffffffffffffffffffffffffffffffffffff16815260200190815260200160002060009054906101000a900460ff168015615067575060006005826fffffffffffffffffffffffffffffffff1681548110615024577f4e487b7100000000000000000000000000000000000000000000000000000000600052603260045260246000fd5b906000526020600020906004020160030160009054906101000a90046fffffffffffffffffffffffffffffffff166fffffffffffffffffffffffffffffffff1614155b156151865760016005826fffffffffffffffffffffffffffffffff16815481106150ba577f4e487b7100000000000000000000000000000000000000000000000000000000600052603260045260246000fd5b906000526020600020906004020160030160009054906101000a90046fffffffffffffffffffffffffffffffff166150f29190618469565b6005826fffffffffffffffffffffffffffffffff168154811061513e577f4e487b7100000000000000000000000000000000000000000000000000000000600052603260045260246000fd5b906000526020600020906004020160030160006101000a8154816fffffffffffffffffffffffffffffffff02191690836fffffffffffffffffffffffffffffffff1602179055505b60006005826fffffffffffffffffffffffffffffffff16815481106151d4577f4e487b7100000000000000000000000000000000000000000000000000000000600052603260045260246000fd5b906000526020600020906004020160020160008473ffffffffffffffffffffffffffffffffffffffff1673ffffffffffffffffffffffffffffffffffffffff16815260200190815260200160002060006101000a81548160ff021916908315150217905550808061524490618618565b915050614f0d565b5033600c6000856fffffffffffffffffffffffffffffffff166fffffffffffffffffffffffffffffffff16815260200190815260200160002060006101000a81548173ffffffffffffffffffffffffffffffffffffffff021916908373ffffffffffffffffffffffffffffffffffffffff16021790555060016005836fffffffffffffffffffffffffffffffff1681548110615311577f4e487b7100000000000000000000000000000000000000000000000000000000600052603260045260246000fd5b906000526020600020906004020160020160003373ffffffffffffffffffffffffffffffffffffffff1673ffffffffffffffffffffffffffffffffffffffff16815260200190815260200160002060006101000a81548160ff021916908315150217905550505050565b61538361564e565b73ffffffffffffffffffffffffffffffffffffffff168573ffffffffffffffffffffffffffffffffffffffff1614806153c957506153c8856153c361564e565b614c59565b5b615408576040517f08c379a00000000000000000000000000000000000000000000000000000000081526004016153ff90617e43565b60405180910390fd5b615415858585858561607c565b5050505050565b61542461564e565b73ffffffffffffffffffffffffffffffffffffffff1661544261427e565b73ffffffffffffffffffffffffffffffffffffffff1614615498576040517f08c379a000000000000000000000000000000000000000000000000000000000815260040161548f90617fc3565b60405180910390fd5b600073ffffffffffffffffffffffffffffffffffffffff168173ffffffffffffffffffffffffffffffffffffffff161415615508576040517f08c379a00000000000000000000000000000000000000000000000000000000081526004016154ff90617de3565b60405180910390fd5b61551181615e49565b50565b61551c61564e565b73ffffffffffffffffffffffffffffffffffffffff168373ffffffffffffffffffffffffffffffffffffffff16148061556257506155618361555c61564e565b614c59565b5b6155a1576040517f08c379a000000000000000000000000000000000000000000000000000000000815260040161559890617e43565b60405180910390fd5b6155ac8383836162fe565b505050565b600c6020528060005260406000206000915054906101000a900473ffffffffffffffffffffffffffffffffffffffff1681565b60007f01ffc9a7000000000000000000000000000000000000000000000000000000007bffffffffffffffffffffffffffffffffffffffffffffffffffffffff1916827bffffffffffffffffffffffffffffffffffffffffffffffffffffffff1916149050919050565b600033905090565b815183511461569a576040517f08c379a000000000000000000000000000000000000000000000000000000000815260040161569190618103565b60405180910390fd5b600073ffffffffffffffffffffffffffffffffffffffff168473ffffffffffffffffffffffffffffffffffffffff16141561570a576040517f08c379a000000000000000000000000000000000000000000000000000000000815260040161570190617ec3565b60405180910390fd5b600061571461564e565b905061572481878787878761651b565b60005b845181101561592157600085828151811061576b577f4e487b7100000000000000000000000000000000000000000000000000000000600052603260045260246000fd5b6020026020010151905060008583815181106157b0577f4e487b7100000000000000000000000000000000000000000000000000000000600052603260045260246000fd5b60200260200101519050600080600084815260200190815260200160002060008b73ffffffffffffffffffffffffffffffffffffffff1673ffffffffffffffffffffffffffffffffffffffff16815260200190815260200160002054905081811015615851576040517f08c379a000000000000000000000000000000000000000000000000000000000815260040161584890617f83565b60405180910390fd5b81810360008085815260200190815260200160002060008c73ffffffffffffffffffffffffffffffffffffffff1673ffffffffffffffffffffffffffffffffffffffff168152602001908152602001600020819055508160008085815260200190815260200160002060008b73ffffffffffffffffffffffffffffffffffffffff1673ffffffffffffffffffffffffffffffffffffffff16815260200190815260200160002060008282546159069190618413565b925050819055505050508061591a90618651565b9050615727565b508473ffffffffffffffffffffffffffffffffffffffff168673ffffffffffffffffffffffffffffffffffffffff168273ffffffffffffffffffffffffffffffffffffffff167f4a39dc06d4c0dbc64b70af90fd698a233a518aa5d07e595d983b8c0526c8f7fb8787604051615998929190617cef565b60405180910390a46159ae818787878787616531565b505050505050565b600073ffffffffffffffffffffffffffffffffffffffff168473ffffffffffffffffffffffffffffffffffffffff161415615a26576040517f08c379a0000000000000000000000000000000000000000000000000000000008152600401615a1d90618123565b60405180910390fd5b6000615a3061564e565b9050615a5181600087615a4288616718565b615a4b88616718565b8761651b565b8260008086815260200190815260200160002060008773ffffffffffffffffffffffffffffffffffffffff1673ffffffffffffffffffffffffffffffffffffffff1681526020019081526020016000206000828254615ab09190618413565b925050819055508473ffffffffffffffffffffffffffffffffffffffff16600073ffffffffffffffffffffffffffffffffffffffff168273ffffffffffffffffffffffffffffffffffffffff167fc3d58168c5ae7397731d063d5bbf3d657854427343f4c083240f7aacaa2d0f628787604051615b2e929190618228565b60405180910390a4615b45816000878787876167de565b5050505050565b600073ffffffffffffffffffffffffffffffffffffffff168373ffffffffffffffffffffffffffffffffffffffff161415615bbc576040517f08c379a0000000000000000000000000000000000000000000000000000000008152600401615bb390617f63565b60405180910390fd5b8051825114615c00576040517f08c379a0000000000000000000000000000000000000000000000000000000008152600401615bf790618103565b60405180910390fd5b6000615c0a61564e565b9050615c2a8185600086866040518060200160405280600081525061651b565b60005b8351811015615dc3576000848281518110615c71577f4e487b7100000000000000000000000000000000000000000000000000000000600052603260045260246000fd5b602002602001015190506000848381518110615cb6577f4e487b7100000000000000000000000000000000000000000000000000000000600052603260045260246000fd5b60200260200101519050600080600084815260200190815260200160002060008973ffffffffffffffffffffffffffffffffffffffff1673ffffffffffffffffffffffffffffffffffffffff16815260200190815260200160002054905081811015615d57576040517f08c379a0000000000000000000000000000000000000000000000000000000008152600401615d4e90617e03565b60405180910390fd5b81810360008085815260200190815260200160002060008a73ffffffffffffffffffffffffffffffffffffffff1673ffffffffffffffffffffffffffffffffffffffff168152602001908152602001600020819055505050508080615dbb90618651565b915050615c2d565b50600073ffffffffffffffffffffffffffffffffffffffff168473ffffffffffffffffffffffffffffffffffffffff168273ffffffffffffffffffffffffffffffffffffffff167f4a39dc06d4c0dbc64b70af90fd698a233a518aa5d07e595d983b8c0526c8f7fb8686604051615e3b929190617cef565b60405180910390a450505050565b6000600360009054906101000a900473ffffffffffffffffffffffffffffffffffffffff16905081600360006101000a81548173ffffffffffffffffffffffffffffffffffffffff021916908373ffffffffffffffffffffffffffffffffffffffff1602179055508173ffffffffffffffffffffffffffffffffffffffff168173ffffffffffffffffffffffffffffffffffffffff167f8be0079c531659141344cd1fd0a4f28419497f9722a3daafe3b4186f6b6457e060405160405180910390a35050565b8173ffffffffffffffffffffffffffffffffffffffff168373ffffffffffffffffffffffffffffffffffffffff161415615f7e576040517f08c379a0000000000000000000000000000000000000000000000000000000008152600401615f75906180a3565b60405180910390fd5b80600160008573ffffffffffffffffffffffffffffffffffffffff1673ffffffffffffffffffffffffffffffffffffffff16815260200190815260200160002060008473ffffffffffffffffffffffffffffffffffffffff1673ffffffffffffffffffffffffffffffffffffffff16815260200190815260200160002060006101000a81548160ff0219169083151502179055508173ffffffffffffffffffffffffffffffffffffffff168373ffffffffffffffffffffffffffffffffffffffff167f17307eab39ab6107e8899845ad3d59bd9653f200f220920489ca2b5937696c318360405161606f9190617d26565b60405180910390a3505050565b600073ffffffffffffffffffffffffffffffffffffffff168473ffffffffffffffffffffffffffffffffffffffff1614156160ec576040517f08c379a00000000000000000000000000000000000000000000000000000000081526004016160e390617ec3565b60405180910390fd5b60006160f661564e565b905061611681878761610788616718565b61611088616718565b8761651b565b600080600086815260200190815260200160002060008873ffffffffffffffffffffffffffffffffffffffff1673ffffffffffffffffffffffffffffffffffffffff168152602001908152602001600020549050838110156161ad576040517f08c379a00000000000000000000000000000000000000000000000000000000081526004016161a490617f83565b60405180910390fd5b83810360008087815260200190815260200160002060008973ffffffffffffffffffffffffffffffffffffffff1673ffffffffffffffffffffffffffffffffffffffff168152602001908152602001600020819055508360008087815260200190815260200160002060008873ffffffffffffffffffffffffffffffffffffffff1673ffffffffffffffffffffffffffffffffffffffff16815260200190815260200160002060008282546162629190618413565b925050819055508573ffffffffffffffffffffffffffffffffffffffff168773ffffffffffffffffffffffffffffffffffffffff168373ffffffffffffffffffffffffffffffffffffffff167fc3d58168c5ae7397731d063d5bbf3d657854427343f4c083240f7aacaa2d0f6288886040516162df929190618228565b60405180910390a46162f58288888888886167de565b50505050505050565b600073ffffffffffffffffffffffffffffffffffffffff168373ffffffffffffffffffffffffffffffffffffffff16141561636e576040517f08c379a000000000000000000000000000000000000000000000000000000000815260040161636590617f63565b60405180910390fd5b600061637861564e565b90506163a88185600061638a87616718565b61639387616718565b6040518060200160405280600081525061651b565b600080600085815260200190815260200160002060008673ffffffffffffffffffffffffffffffffffffffff1673ffffffffffffffffffffffffffffffffffffffff1681526020019081526020016000205490508281101561643f576040517f08c379a000000000000000000000000000000000000000000000000000000000815260040161643690617e03565b60405180910390fd5b82810360008086815260200190815260200160002060008773ffffffffffffffffffffffffffffffffffffffff1673ffffffffffffffffffffffffffffffffffffffff16815260200190815260200160002081905550600073ffffffffffffffffffffffffffffffffffffffff168573ffffffffffffffffffffffffffffffffffffffff168373ffffffffffffffffffffffffffffffffffffffff167fc3d58168c5ae7397731d063d5bbf3d657854427343f4c083240f7aacaa2d0f62878760405161650c929190618228565b60405180910390a45050505050565b6165298686868686866169c5565b505050505050565b6165508473ffffffffffffffffffffffffffffffffffffffff16616bd7565b15616710578373ffffffffffffffffffffffffffffffffffffffff1663bc197c8187878686866040518663ffffffff1660e01b8152600401616596959493929190617c0b565b602060405180830381600087803b1580156165b057600080fd5b505af19250505080156165e157506040513d601f19601f820116820180604052508101906165de9190617454565b60015b616687576165ed618727565b806308c379a0141561664a5750616602619040565b8061660d575061664c565b806040517f08c379a00000000000000000000000000000000000000000000000000000000081526004016166419190617d41565b60405180910390fd5b505b6040517f08c379a000000000000000000000000000000000000000000000000000000000815260040161667e90617d63565b60405180910390fd5b63bc197c8160e01b7bffffffffffffffffffffffffffffffffffffffffffffffffffffffff1916817bffffffffffffffffffffffffffffffffffffffffffffffffffffffff19161461670e576040517f08c379a000000000000000000000000000000000000000000000000000000000815260040161670590617d83565b60405180910390fd5b505b505050505050565b60606000600167ffffffffffffffff81111561675d577f4e487b7100000000000000000000000000000000000000000000000000000000600052604160045260246000fd5b60405190808252806020026020018201604052801561678b5781602001602082028036833780820191505090505b50905082816000815181106167c9577f4e487b7100000000000000000000000000000000000000000000000000000000600052603260045260246000fd5b60200260200101818152505080915050919050565b6167fd8473ffffffffffffffffffffffffffffffffffffffff16616bd7565b156169bd578373ffffffffffffffffffffffffffffffffffffffff1663f23a6e6187878686866040518663ffffffff1660e01b8152600401616843959493929190617c73565b602060405180830381600087803b15801561685d57600080fd5b505af192505050801561688e57506040513d601f19601f8201168201806040525081019061688b9190617454565b60015b6169345761689a618727565b806308c379a014156168f757506168af619040565b806168ba57506168f9565b806040517f08c379a00000000000000000000000000000000000000000000000000000000081526004016168ee9190617d41565b60405180910390fd5b505b6040517f08c379a000000000000000000000000000000000000000000000000000000000815260040161692b90617d63565b60405180910390fd5b63f23a6e6160e01b7bffffffffffffffffffffffffffffffffffffffffffffffffffffffff1916817bffffffffffffffffffffffffffffffffffffffffffffffffffffffff1916146169bb576040517f08c379a00000000000000000000000000000000000000000000000000000000081526004016169b290617d83565b60405180910390fd5b505b505050505050565b6169d3868686868686616bfa565b600073ffffffffffffffffffffffffffffffffffffffff168573ffffffffffffffffffffffffffffffffffffffff161415616ad15760005b8351811015616acf57828181518110616a4d577f4e487b7100000000000000000000000000000000000000000000000000000000600052603260045260246000fd5b602002602001015160046000868481518110616a92577f4e487b7100000000000000000000000000000000000000000000000000000000600052603260045260246000fd5b602002602001015181526020019081526020016000206000828254616ab79190618413565b9250508190555080616ac890618651565b9050616a0b565b505b600073ffffffffffffffffffffffffffffffffffffffff168473ffffffffffffffffffffffffffffffffffffffff161415616bcf5760005b8351811015616bcd57828181518110616b4b577f4e487b7100000000000000000000000000000000000000000000000000000000600052603260045260246000fd5b602002602001015160046000868481518110616b90577f4e487b7100000000000000000000000000000000000000000000000000000000600052603260045260246000fd5b602002602001015181526020019081526020016000206000828254616bb5919061849d565b9250508190555080616bc690618651565b9050616b09565b505b505050505050565b6000808273ffffffffffffffffffffffffffffffffffffffff163b119050919050565b505050505050565b828054616c0e906185b5565b90600052602060002090601f016020900481019282616c305760008555616c77565b82601f10616c4957805160ff1916838001178555616c77565b82800160010185558215616c77579182015b82811115616c76578251825591602001919060010190616c5b565b5b509050616c849190616c88565b5090565b5b80821115616ca1576000816000905550600101616c89565b5090565b6000616cb8616cb384618276565b618251565b90508083825260208201905082856020860282011115616cd757600080fd5b60005b85811015616d075781616ced8882616e65565b845260208401935060208301925050600181019050616cda565b5050509392505050565b6000616d24616d1f846182a2565b618251565b90508083825260208201905082856020860282011115616d4357600080fd5b60005b85811015616d735781616d598882616fa0565b845260208401935060208301925050600181019050616d46565b5050509392505050565b6000616d90616d8b846182ce565b618251565b90508083825260208201905082856020860282011115616daf57600080fd5b60005b85811015616ddf5781616dc58882616fb5565b845260208401935060208301925050600181019050616db2565b5050509392505050565b6000616dfc616df7846182fa565b618251565b905082815260208101848484011115616e1457600080fd5b616e1f848285618573565b509392505050565b6000616e3a616e358461832b565b618251565b905082815260208101848484011115616e5257600080fd5b616e5d848285618573565b509392505050565b600081359050616e74816190d6565b92915050565b600081359050616e89816190ed565b92915050565b600082601f830112616ea057600080fd5b8135616eb0848260208601616ca5565b91505092915050565b600082601f830112616eca57600080fd5b8135616eda848260208601616d11565b91505092915050565b600082601f830112616ef457600080fd5b8135616f04848260208601616d7d565b91505092915050565b600081359050616f1c81619104565b92915050565b600081359050616f318161911b565b92915050565b600081519050616f468161911b565b92915050565b600082601f830112616f5d57600080fd5b8135616f6d848260208601616de9565b91505092915050565b600082601f830112616f8757600080fd5b8135616f97848260208601616e27565b91505092915050565b600081359050616faf81619132565b92915050565b600081359050616fc481619149565b92915050565b600060208284031215616fdc57600080fd5b6000616fea84828501616e65565b91505092915050565b60006020828403121561700557600080fd5b600061701384828501616e7a565b91505092915050565b6000806040838503121561702f57600080fd5b600061703d85828601616e65565b925050602061704e85828601616e65565b9150509250929050565b600080600080600060a0868803121561707057600080fd5b600061707e88828901616e65565b955050602061708f88828901616e65565b945050604086013567ffffffffffffffff8111156170ac57600080fd5b6170b888828901616ee3565b935050606086013567ffffffffffffffff8111156170d557600080fd5b6170e188828901616ee3565b925050608086013567ffffffffffffffff8111156170fe57600080fd5b61710a88828901616f4c565b9150509295509295909350565b600080600080600060a0868803121561712f57600080fd5b600061713d88828901616e65565b955050602061714e88828901616e65565b945050604061715f88828901616fb5565b935050606061717088828901616fb5565b925050608086013567ffffffffffffffff81111561718d57600080fd5b61719988828901616f4c565b9150509295509295909350565b6000806000606084860312156171bb57600080fd5b60006171c986828701616e65565b935050602084013567ffffffffffffffff8111156171e657600080fd5b6171f286828701616ee3565b925050604084013567ffffffffffffffff81111561720f57600080fd5b61721b86828701616ee3565b9150509250925092565b6000806040838503121561723857600080fd5b600061724685828601616e65565b925050602061725785828601616f0d565b9150509250929050565b6000806040838503121561727457600080fd5b600061728285828601616e65565b925050602061729385828601616fb5565b9150509250929050565b6000806000606084860312156172b257600080fd5b60006172c086828701616e65565b93505060206172d186828701616fb5565b92505060406172e286828701616fb5565b9150509250925092565b60008060006060848603121561730157600080fd5b600084013567ffffffffffffffff81111561731b57600080fd5b61732786828701616e8f565b935050602084013567ffffffffffffffff81111561734457600080fd5b61735086828701616eb9565b925050604061736186828701616fa0565b9150509250925092565b6000806040838503121561737e57600080fd5b600083013567ffffffffffffffff81111561739857600080fd5b6173a485828601616e8f565b925050602083013567ffffffffffffffff8111156173c157600080fd5b6173cd85828601616ee3565b9150509250929050565b600080604083850312156173ea57600080fd5b600083013567ffffffffffffffff81111561740457600080fd5b61741085828601616e8f565b925050602061742185828601616fa0565b9150509250929050565b60006020828403121561743d57600080fd5b600061744b84828501616f22565b91505092915050565b60006020828403121561746657600080fd5b600061747484828501616f37565b91505092915050565b60006020828403121561748f57600080fd5b600082013567ffffffffffffffff8111156174a957600080fd5b6174b584828501616f76565b91505092915050565b6000602082840312156174d057600080fd5b60006174de84828501616fa0565b91505092915050565b600080604083850312156174fa57600080fd5b600061750885828601616fa0565b925050602061751985828601616e65565b9150509250929050565b6000806000806080858703121561753957600080fd5b600061754787828801616fa0565b945050602061755887828801616f0d565b935050604061756987828801616f0d565b925050606061757a87828801616f0d565b91505092959194509250565b6000806040838503121561759957600080fd5b60006175a785828601616fa0565b92505060206175b885828601616fa0565b9150509250929050565b6000806000606084860312156175d757600080fd5b60006175e586828701616fa0565b93505060206175f686828701616fa0565b925050604061760786828701616fa0565b9150509250925092565b60006020828403121561762357600080fd5b600061763184828501616fb5565b91505092915050565b60006176468383617bd2565b60208301905092915050565b61765b816184d1565b82525050565b600061766c8261836c565b617676818561839a565b93506176818361835c565b8060005b838110156176b2578151617699888261763a565b97506176a48361838d565b925050600181019050617685565b5085935050505092915050565b6176c8816184f5565b82525050565b60006176d982618377565b6176e381856183ab565b93506176f3818560208601618582565b6176fc81618749565b840191505092915050565b600061771282618382565b61771c81856183bc565b935061772c818560208601618582565b61773581618749565b840191505092915050565b600061774d6034836183bc565b915061775882618767565b604082019050919050565b60006177706028836183bc565b915061777b826187b6565b604082019050919050565b6000617793602b836183bc565b915061779e82618805565b604082019050919050565b60006177b66008836183bc565b91506177c182618854565b602082019050919050565b60006177d96026836183bc565b91506177e48261887d565b604082019050919050565b60006177fc6024836183bc565b9150617807826188cc565b604082019050919050565b600061781f6052836183bc565b915061782a8261891b565b606082019050919050565b60006178426029836183bc565b915061784d82618990565b604082019050919050565b6000617865602e836183bc565b9150617870826189df565b604082019050919050565b6000617888602c836183bc565b915061789382618a2e565b604082019050919050565b60006178ab6032836183bc565b91506178b682618a7d565b604082019050919050565b60006178ce6025836183bc565b91506178d982618acc565b604082019050919050565b60006178f16010836183bc565b91506178fc82618b1b565b602082019050919050565b60006179146032836183bc565b915061791f82618b44565b604082019050919050565b60006179376016836183bc565b915061794282618b93565b602082019050919050565b600061795a6012836183bc565b915061796582618bbc565b602082019050919050565b600061797d6023836183bc565b915061798882618be5565b604082019050919050565b60006179a0602a836183bc565b91506179ab82618c34565b604082019050919050565b60006179c3601b836183bc565b91506179ce82618c83565b602082019050919050565b60006179e66020836183bc565b91506179f182618cac565b602082019050919050565b6000617a096028836183bc565b9150617a1482618cd5565b604082019050919050565b6000617a2c6012836183bc565b9150617a3782618d24565b602082019050919050565b6000617a4f6011836183bc565b9150617a5a82618d4d565b602082019050919050565b6000617a72602b836183bc565b9150617a7d82618d76565b604082019050919050565b6000617a95602e836183bc565b9150617aa082618dc5565b604082019050919050565b6000617ab86027836183bc565b9150617ac382618e14565b604082019050919050565b6000617adb6029836183bc565b9150617ae682618e63565b604082019050919050565b6000617afe6029836183bc565b9150617b0982618eb2565b604082019050919050565b6000617b21602f836183bc565b9150617b2c82618f01565b604082019050919050565b6000617b446028836183bc565b9150617b4f82618f50565b604082019050919050565b6000617b676021836183bc565b9150617b7282618f9f565b604082019050919050565b6000617b8a601d836183bc565b9150617b9582618fee565b602082019050919050565b6000617bad6015836183bc565b9150617bb882619017565b602082019050919050565b617bcc8161852d565b82525050565b617bdb81618569565b82525050565b617bea81618569565b82525050565b6000602082019050617c056000830184617652565b92915050565b600060a082019050617c206000830188617652565b617c2d6020830187617652565b8181036040830152617c3f8186617661565b90508181036060830152617c538185617661565b90508181036080830152617c6781846176ce565b90509695505050505050565b600060a082019050617c886000830188617652565b617c956020830187617652565b617ca26040830186617be1565b617caf6060830185617be1565b8181036080830152617cc181846176ce565b90509695505050505050565b60006020820190508181036000830152617ce78184617661565b905092915050565b60006040820190508181036000830152617d098185617661565b90508181036020830152617d1d8184617661565b90509392505050565b6000602082019050617d3b60008301846176bf565b92915050565b60006020820190508181036000830152617d5b8184617707565b905092915050565b60006020820190508181036000830152617d7c81617740565b9050919050565b60006020820190508181036000830152617d9c81617763565b9050919050565b60006020820190508181036000830152617dbc81617786565b9050919050565b60006020820190508181036000830152617ddc816177a9565b9050919050565b60006020820190508181036000830152617dfc816177cc565b9050919050565b60006020820190508181036000830152617e1c816177ef565b9050919050565b60006020820190508181036000830152617e3c81617812565b9050919050565b60006020820190508181036000830152617e5c81617835565b9050919050565b60006020820190508181036000830152617e7c81617858565b9050919050565b60006020820190508181036000830152617e9c8161787b565b9050919050565b60006020820190508181036000830152617ebc8161789e565b9050919050565b60006020820190508181036000830152617edc816178c1565b9050919050565b60006020820190508181036000830152617efc816178e4565b9050919050565b60006020820190508181036000830152617f1c81617907565b9050919050565b60006020820190508181036000830152617f3c8161792a565b9050919050565b60006020820190508181036000830152617f5c8161794d565b9050919050565b60006020820190508181036000830152617f7c81617970565b9050919050565b60006020820190508181036000830152617f9c81617993565b9050919050565b60006020820190508181036000830152617fbc816179b6565b9050919050565b60006020820190508181036000830152617fdc816179d9565b9050919050565b60006020820190508181036000830152617ffc816179fc565b9050919050565b6000602082019050818103600083015261801c81617a1f565b9050919050565b6000602082019050818103600083015261803c81617a42565b9050919050565b6000602082019050818103600083015261805c81617a65565b9050919050565b6000602082019050818103600083015261807c81617a88565b9050919050565b6000602082019050818103600083015261809c81617aab565b9050919050565b600060208201905081810360008301526180bc81617ace565b9050919050565b600060208201905081810360008301526180dc81617af1565b9050919050565b600060208201905081810360008301526180fc81617b14565b9050919050565b6000602082019050818103600083015261811c81617b37565b9050919050565b6000602082019050818103600083015261813c81617b5a565b9050919050565b6000602082019050818103600083015261815c81617b7d565b9050919050565b6000602082019050818103600083015261817c81617ba0565b9050919050565b60006020820190506181986000830184617bc3565b92915050565b600060e0820190506181b3600083018a617bc3565b6181c06020830189617bc3565b6181cd60408301886176bf565b6181da60608301876176bf565b6181e760808301866176bf565b6181f460a0830185617bc3565b61820160c0830184617bc3565b98975050505050505050565b60006020820190506182226000830184617be1565b92915050565b600060408201905061823d6000830185617be1565b61824a6020830184617be1565b9392505050565b600061825b61826c565b905061826782826185e7565b919050565b6000604051905090565b600067ffffffffffffffff821115618291576182906186f8565b5b602082029050602081019050919050565b600067ffffffffffffffff8211156182bd576182bc6186f8565b5b602082029050602081019050919050565b600067ffffffffffffffff8211156182e9576182e86186f8565b5b602082029050602081019050919050565b600067ffffffffffffffff821115618315576183146186f8565b5b61831e82618749565b9050602081019050919050565b600067ffffffffffffffff821115618346576183456186f8565b5b61834f82618749565b9050602081019050919050565b6000819050602082019050919050565b600081519050919050565b600081519050919050565b600081519050919050565b6000602082019050919050565b600082825260208201905092915050565b600082825260208201905092915050565b600082825260208201905092915050565b60006183d88261852d565b91506183e38361852d565b9250826fffffffffffffffffffffffffffffffff038211156184085761840761869a565b5b828201905092915050565b600061841e82618569565b915061842983618569565b9250827fffffffffffffffffffffffffffffffffffffffffffffffffffffffffffffffff0382111561845e5761845d61869a565b5b828201905092915050565b60006184748261852d565b915061847f8361852d565b9250828210156184925761849161869a565b5b828203905092915050565b60006184a882618569565b91506184b383618569565b9250828210156184c6576184c561869a565b5b828203905092915050565b60006184dc82618549565b9050919050565b60006184ee82618549565b9050919050565b60008115159050919050565b60007fffffffff0000000000000000000000000000000000000000000000000000000082169050919050565b60006fffffffffffffffffffffffffffffffff82169050919050565b600073ffffffffffffffffffffffffffffffffffffffff82169050919050565b6000819050919050565b82818337600083830152505050565b60005b838110156185a0578082015181840152602081019050618585565b838111156185af576000848401525b50505050565b600060028204905060018216806185cd57607f821691505b602082108114156185e1576185e06186c9565b5b50919050565b6185f082618749565b810181811067ffffffffffffffff8211171561860f5761860e6186f8565b5b80604052505050565b60006186238261852d565b91506fffffffffffffffffffffffffffffffff8214156186465761864561869a565b5b600182019050919050565b600061865c82618569565b91507fffffffffffffffffffffffffffffffffffffffffffffffffffffffffffffffff82141561868f5761868e61869a565b5b600182019050919050565b7f4e487b7100000000000000000000000000000000000000000000000000000000600052601160045260246000fd5b7f4e487b7100000000000000000000000000000000000000000000000000000000600052602260045260246000fd5b7f4e487b7100000000000000000000000000000000000000000000000000000000600052604160045260246000fd5b600060033d11156187465760046000803e61874360005161875a565b90505b90565b6000601f19601f8301169050919050565b60008160e01c9050919050565b7f455243313135353a207472616e7366657220746f206e6f6e204552433131353560008201527f526563656976657220696d706c656d656e746572000000000000000000000000602082015250565b7f455243313135353a204552433131353552656365697665722072656a6563746560008201527f6420746f6b656e73000000000000000000000000000000000000000000000000602082015250565b7f455243313135353a2062616c616e636520717565727920666f7220746865207a60008201527f65726f2061646472657373000000000000000000000000000000000000000000602082015250565b7f536f6c64204f7574000000000000000000000000000000000000000000000000600082015250565b7f4f776e61626c653a206e6577206f776e657220697320746865207a65726f206160008201527f6464726573730000000000000000000000000000000000000000000000000000602082015250565b7f455243313135353a206275726e20616d6f756e7420657863656564732062616c60008201527f616e636500000000000000000000000000000000000000000000000000000000602082015250565b7f4f6e65206f6620746865736520757365727320697320616c7265616479206e6f60008201527f74206f6e20574c2e205573652074686520436865636b2057686974654c69737460208201527f2066756e6374696f6e20746f20736f6c76650000000000000000000000000000604082015250565b7f455243313135353a2063616c6c6572206973206e6f74206f776e6572206e6f7260008201527f20617070726f7665640000000000000000000000000000000000000000000000602082015250565b7f596f7572206e6577206d696e696d756d206973206569746865722062656c6f7760008201527f2030206f72206f76657220393939000000000000000000000000000000000000602082015250565b7f506c65617365205761697420466f72205468652043757272656e742053616c6560008201527f20546f204265204f7665722e0000000000000000000000000000000000000000602082015250565b7f596f7572206d696e696d756d20616e64206d6178696d756d2063616e6e6f742060008201527f6265207468652073616d65206e756d6265720000000000000000000000000000602082015250565b7f455243313135353a207472616e7366657220746f20746865207a65726f20616460008201527f6472657373000000000000000000000000000000000000000000000000000000602082015250565b7f50726553616c65204e6f74204c69766500000000000000000000000000000000600082015250565b7f455243313135353a207472616e736665722063616c6c6572206973206e6f742060008201527f6f776e6572206e6f7220617070726f7665640000000000000000000000000000602082015250565b7f4361726420497320416c7265616479204d696e74656400000000000000000000600082015250565b7f4d696e74204c696d697420526561636865640000000000000000000000000000600082015250565b7f455243313135353a206275726e2066726f6d20746865207a65726f206164647260008201527f6573730000000000000000000000000000000000000000000000000000000000602082015250565b7f455243313135353a20696e73756666696369656e742062616c616e636520666f60008201527f72207472616e7366657200000000000000000000000000000000000000000000602082015250565b7f596f75204172656e2774204f6e205468652057686974656c6973740000000000600082015250565b7f4f776e61626c653a2063616c6c6572206973206e6f7420746865206f776e6572600082015250565b7f596f7520446f6e2774204861766520416e7920436172647320496e20596f757260008201527f2057616c6c65742e000000000000000000000000000000000000000000000000602082015250565b7f53616c65204973204e6f74204163746976650000000000000000000000000000600082015250565b7f43617264204e6f7420466f722053616c65000000000000000000000000000000600082015250565b7f536f7272792c205468657265204172656e277420416e796d6f7265204176616960008201527f6c61626c65204361726473000000000000000000000000000000000000000000602082015250565b7f596f7572206e6577206d6178696d756d206973206569746865722062656c6f7760008201527f2030206f72206f76657220393939000000000000000000000000000000000000602082015250565b7f5468652043617264204e756d6265722053656c656374656420446f6573204e6f60008201527f7420457869737400000000000000000000000000000000000000000000000000602082015250565b7f455243313135353a2073657474696e6720617070726f76616c2073746174757360008201527f20666f722073656c660000000000000000000000000000000000000000000000602082015250565b7f455243313135353a206163636f756e747320616e6420696473206c656e67746860008201527f206d69736d617463680000000000000000000000000000000000000000000000602082015250565b7f4120436172642053656c656374656420416c72656164792042656c6f6e67732060008201527f546f20536f6d656f6e6520456c73650000000000000000000000000000000000602082015250565b7f455243313135353a2069647320616e6420616d6f756e7473206c656e6774682060008201527f6d69736d61746368000000000000000000000000000000000000000000000000602082015250565b7f455243313135353a206d696e7420746f20746865207a65726f2061646472657360008201527f7300000000000000000000000000000000000000000000000000000000000000602082015250565b7f546f6b656e2063616e6e6f74206265207a65726f20616464726573732e000000600082015250565b7f4e6f7420456e6f7567682045746865722053656e740000000000000000000000600082015250565b600060443d1015619050576190d3565b61905861826c565b60043d036004823e80513d602482011167ffffffffffffffff821117156190805750506190d3565b808201805167ffffffffffffffff81111561909e57505050506190d3565b80602083010160043d0385018111156190bb5750505050506190d3565b6190ca826020018501866185e7565b82955050505050505b90565b6190df816184d1565b81146190ea57600080fd5b50565b6190f6816184e3565b811461910157600080fd5b50565b61910d816184f5565b811461911857600080fd5b50565b61912481618501565b811461912f57600080fd5b50565b61913b8161852d565b811461914657600080fd5b50565b61915281618569565b811461915d57600080fd5b5056fe697066733a2f2f516d6343566e6e52697937544167524548784b4a4a72635a4c4353426d7a3266596d314c756d35766a5659364765a264697066735822122015a6091cce20de2bd80a0e5b57b226bacfe925f7aa60537e87c04bb6b34135c764736f6c63430008010033",
  "linkReferences": {},
  "deployedLinkReferences": {}
}